{"contracts/CodeTrust.sol":{"CodeTrust":{"abi":[{"inputs":[{"internalType":"address","name":"trustedContract","type":"address"},{"internalType":"address","name":"by","type":"address"},{"internalType":"uint256","name":"extTimestamp","type":"uint256"}],"name":"isTrustedCode","outputs":[{"internalType":"bool","name":"","type":"bool"}],"stateMutability":"view","type":"function"},{"inputs":[{"internalType":"address","name":"trustedCode","type":"address"},{"internalType":"uint256","name":"duration","type":"uint256"}],"name":"trustCodeAt","outputs":[],"stateMutability":"nonpayable","type":"function"},{"inputs":[{"internalType":"address","name":"trustedCode","type":"address"}],"name":"untrustCodeAt","outputs":[],"stateMutability":"nonpayable","type":"function"}],"evm":{"bytecode":{"linkReferences":{},"object":"608060405234801561001057600080fd5b50610375806100206000396000f3fe608060405234801561001057600080fd5b50600436106100415760003560e01c80634f9402701461004657806383e5e6401461006d578063920517e614610082575b600080fd5b610059610054366004610298565b610095565b604051901515815260200160405180910390f35b61008061007b3660046102d4565b61010d565b005b6100806100903660046102ef565b6101b2565b6000816000036100a3574291505b6001600160a01b0383166100b5573392505b6001600160a01b038084166000908152602081815260408083209388168352929052205460018114806100f157506100ee836005610319565b81115b15610100576001915050610106565b60009150505b9392505050565b336000908152602081815260408083206001600160a01b038516845290915290205460018114806101475750610144426005610319565b81115b61018a5760405162461bcd60e51b815260206004820152600f60248201526e105b1c9958591e48195e1c1a5c9959608a1b60448201526064015b60405180910390fd5b50336000908152602081815260408083206001600160a01b0394909416835292905220429055565b32330361024a57600a81101580156101ce57506301e133808111155b61021a5760405162461bcd60e51b815260206004820152601b60248201527f496e76616c6964206475726174696f6e2c20636865636b20446f6300000000006044820152606401610181565b6102248142610319565b336000908152602081815260408083206001600160a01b03871684529091529020555050565b600381101561021a5750336000908152602081815260408083206001600160a01b039490941683529290522060019055565b80356001600160a01b038116811461029357600080fd5b919050565b6000806000606084860312156102ad57600080fd5b6102b68461027c565b92506102c46020850161027c565b9150604084013590509250925092565b6000602082840312156102e657600080fd5b6101068261027c565b6000806040838503121561030257600080fd5b61030b8361027c565b946020939093013593505050565b6000821982111561033a57634e487b7160e01b600052601160045260246000fd5b50019056fea2646970667358221220a85fb852ed93d33c3d18a7e8200eb7236785ebdf410ce25bcd07ef5ff5cb6b6a64736f6c634300080d0033","opcodes":"PUSH1 0x80 PUSH1 0x40 MSTORE CALLVALUE DUP1 ISZERO PUSH2 0x10 JUMPI PUSH1 0x0 DUP1 REVERT JUMPDEST POP PUSH2 0x375 DUP1 PUSH2 0x20 PUSH1 0x0 CODECOPY PUSH1 0x0 RETURN INVALID PUSH1 0x80 PUSH1 0x40 MSTORE CALLVALUE DUP1 ISZERO PUSH2 0x10 JUMPI PUSH1 0x0 DUP1 REVERT JUMPDEST POP PUSH1 0x4 CALLDATASIZE LT PUSH2 0x41 JUMPI PUSH1 0x0 CALLDATALOAD PUSH1 0xE0 SHR DUP1 PUSH4 0x4F940270 EQ PUSH2 0x46 JUMPI DUP1 PUSH4 0x83E5E640 EQ PUSH2 0x6D JUMPI DUP1 PUSH4 0x920517E6 EQ PUSH2 0x82 JUMPI JUMPDEST PUSH1 0x0 DUP1 REVERT JUMPDEST PUSH2 0x59 PUSH2 0x54 CALLDATASIZE PUSH1 0x4 PUSH2 0x298 JUMP JUMPDEST PUSH2 0x95 JUMP JUMPDEST PUSH1 0x40 MLOAD SWAP1 ISZERO ISZERO DUP2 MSTORE PUSH1 0x20 ADD PUSH1 0x40 MLOAD DUP1 SWAP2 SUB SWAP1 RETURN JUMPDEST PUSH2 0x80 PUSH2 0x7B CALLDATASIZE PUSH1 0x4 PUSH2 0x2D4 JUMP JUMPDEST PUSH2 0x10D JUMP JUMPDEST STOP JUMPDEST PUSH2 0x80 PUSH2 0x90 CALLDATASIZE PUSH1 0x4 PUSH2 0x2EF JUMP JUMPDEST PUSH2 0x1B2 JUMP JUMPDEST PUSH1 0x0 DUP2 PUSH1 0x0 SUB PUSH2 0xA3 JUMPI TIMESTAMP SWAP2 POP JUMPDEST PUSH1 0x1 PUSH1 0x1 PUSH1 0xA0 SHL SUB DUP4 AND PUSH2 0xB5 JUMPI CALLER SWAP3 POP JUMPDEST PUSH1 0x1 PUSH1 0x1 PUSH1 0xA0 SHL SUB DUP1 DUP5 AND PUSH1 0x0 SWAP1 DUP2 MSTORE PUSH1 0x20 DUP2 DUP2 MSTORE PUSH1 0x40 DUP1 DUP4 KECCAK256 SWAP4 DUP9 AND DUP4 MSTORE SWAP3 SWAP1 MSTORE KECCAK256 SLOAD PUSH1 0x1 DUP2 EQ DUP1 PUSH2 0xF1 JUMPI POP PUSH2 0xEE DUP4 PUSH1 0x5 PUSH2 0x319 JUMP JUMPDEST DUP2 GT JUMPDEST ISZERO PUSH2 0x100 JUMPI PUSH1 0x1 SWAP2 POP POP PUSH2 0x106 JUMP JUMPDEST PUSH1 0x0 SWAP2 POP POP JUMPDEST SWAP4 SWAP3 POP POP POP JUMP JUMPDEST CALLER PUSH1 0x0 SWAP1 DUP2 MSTORE PUSH1 0x20 DUP2 DUP2 MSTORE PUSH1 0x40 DUP1 DUP4 KECCAK256 PUSH1 0x1 PUSH1 0x1 PUSH1 0xA0 SHL SUB DUP6 AND DUP5 MSTORE SWAP1 SWAP2 MSTORE SWAP1 KECCAK256 SLOAD PUSH1 0x1 DUP2 EQ DUP1 PUSH2 0x147 JUMPI POP PUSH2 0x144 TIMESTAMP PUSH1 0x5 PUSH2 0x319 JUMP JUMPDEST DUP2 GT JUMPDEST PUSH2 0x18A JUMPI PUSH1 0x40 MLOAD PUSH3 0x461BCD PUSH1 0xE5 SHL DUP2 MSTORE PUSH1 0x20 PUSH1 0x4 DUP3 ADD MSTORE PUSH1 0xF PUSH1 0x24 DUP3 ADD MSTORE PUSH15 0x105B1C9958591E48195E1C1A5C9959 PUSH1 0x8A SHL PUSH1 0x44 DUP3 ADD MSTORE PUSH1 0x64 ADD JUMPDEST PUSH1 0x40 MLOAD DUP1 SWAP2 SUB SWAP1 REVERT JUMPDEST POP CALLER PUSH1 0x0 SWAP1 DUP2 MSTORE PUSH1 0x20 DUP2 DUP2 MSTORE PUSH1 0x40 DUP1 DUP4 KECCAK256 PUSH1 0x1 PUSH1 0x1 PUSH1 0xA0 SHL SUB SWAP5 SWAP1 SWAP5 AND DUP4 MSTORE SWAP3 SWAP1 MSTORE KECCAK256 TIMESTAMP SWAP1 SSTORE JUMP JUMPDEST ORIGIN CALLER SUB PUSH2 0x24A JUMPI PUSH1 0xA DUP2 LT ISZERO DUP1 ISZERO PUSH2 0x1CE JUMPI POP PUSH4 0x1E13380 DUP2 GT ISZERO JUMPDEST PUSH2 0x21A JUMPI PUSH1 0x40 MLOAD PUSH3 0x461BCD PUSH1 0xE5 SHL DUP2 MSTORE PUSH1 0x20 PUSH1 0x4 DUP3 ADD MSTORE PUSH1 0x1B PUSH1 0x24 DUP3 ADD MSTORE PUSH32 0x496E76616C6964206475726174696F6E2C20636865636B20446F630000000000 PUSH1 0x44 DUP3 ADD MSTORE PUSH1 0x64 ADD PUSH2 0x181 JUMP JUMPDEST PUSH2 0x224 DUP2 TIMESTAMP PUSH2 0x319 JUMP JUMPDEST CALLER PUSH1 0x0 SWAP1 DUP2 MSTORE PUSH1 0x20 DUP2 DUP2 MSTORE PUSH1 0x40 DUP1 DUP4 KECCAK256 PUSH1 0x1 PUSH1 0x1 PUSH1 0xA0 SHL SUB DUP8 AND DUP5 MSTORE SWAP1 SWAP2 MSTORE SWAP1 KECCAK256 SSTORE POP POP JUMP JUMPDEST PUSH1 0x3 DUP2 LT ISZERO PUSH2 0x21A JUMPI POP CALLER PUSH1 0x0 SWAP1 DUP2 MSTORE PUSH1 0x20 DUP2 DUP2 MSTORE PUSH1 0x40 DUP1 DUP4 KECCAK256 PUSH1 0x1 PUSH1 0x1 PUSH1 0xA0 SHL SUB SWAP5 SWAP1 SWAP5 AND DUP4 MSTORE SWAP3 SWAP1 MSTORE KECCAK256 PUSH1 0x1 SWAP1 SSTORE JUMP JUMPDEST DUP1 CALLDATALOAD PUSH1 0x1 PUSH1 0x1 PUSH1 0xA0 SHL SUB DUP2 AND DUP2 EQ PUSH2 0x293 JUMPI PUSH1 0x0 DUP1 REVERT JUMPDEST SWAP2 SWAP1 POP JUMP JUMPDEST PUSH1 0x0 DUP1 PUSH1 0x0 PUSH1 0x60 DUP5 DUP7 SUB SLT ISZERO PUSH2 0x2AD JUMPI PUSH1 0x0 DUP1 REVERT JUMPDEST PUSH2 0x2B6 DUP5 PUSH2 0x27C JUMP JUMPDEST SWAP3 POP PUSH2 0x2C4 PUSH1 0x20 DUP6 ADD PUSH2 0x27C JUMP JUMPDEST SWAP2 POP PUSH1 0x40 DUP5 ADD CALLDATALOAD SWAP1 POP SWAP3 POP SWAP3 POP SWAP3 JUMP JUMPDEST PUSH1 0x0 PUSH1 0x20 DUP3 DUP5 SUB SLT ISZERO PUSH2 0x2E6 JUMPI PUSH1 0x0 DUP1 REVERT JUMPDEST PUSH2 0x106 DUP3 PUSH2 0x27C JUMP JUMPDEST PUSH1 0x0 DUP1 PUSH1 0x40 DUP4 DUP6 SUB SLT ISZERO PUSH2 0x302 JUMPI PUSH1 0x0 DUP1 REVERT JUMPDEST PUSH2 0x30B DUP4 PUSH2 0x27C JUMP JUMPDEST SWAP5 PUSH1 0x20 SWAP4 SWAP1 SWAP4 ADD CALLDATALOAD SWAP4 POP POP POP JUMP JUMPDEST PUSH1 0x0 DUP3 NOT DUP3 GT ISZERO PUSH2 0x33A JUMPI PUSH4 0x4E487B71 PUSH1 0xE0 SHL PUSH1 0x0 MSTORE PUSH1 0x11 PUSH1 0x4 MSTORE PUSH1 0x24 PUSH1 0x0 REVERT JUMPDEST POP ADD SWAP1 JUMP INVALID LOG2 PUSH5 0x6970667358 0x22 SLT KECCAK256 0xA8 0x5F 0xB8 MSTORE 0xED SWAP4 0xD3 EXTCODECOPY RETURNDATASIZE XOR 0xA7 0xE8 KECCAK256 0xE 0xB7 0x23 PUSH8 0x85EBDF410CE25BCD SMOD 0xEF 0x5F CREATE2 0xCB PUSH12 0x6A64736F6C634300080D0033 "},"methodIdentifiers":{"isTrustedCode(address,address,uint256)":"4f940270","trustCodeAt(address,uint256)":"920517e6","untrustCodeAt(address)":"83e5e640"}}}}}