{
  "_format": "hh-sol-artifact-1",
  "contractName": "TrustedExample",
  "sourceName": "contracts/TrustedExample.sol",
  "abi": [
    {
      "inputs": [
        {
          "internalType": "address",
          "name": "contractToCall",
          "type": "address"
        }
      ],
      "name": "callContract",
      "outputs": [],
      "stateMutability": "nonpayable",
      "type": "function"
    }
  ],
  "bytecode": "0x608060405234801561001057600080fd5b5060fd8061001f6000396000f3fe6080604052348015600f57600080fd5b506004361060285760003560e01c806368874f1f14602d575b600080fd5b603c60383660046099565b603e565b005b6040516306a4c8db60e31b8152600a60048201526001600160a01b0382169063352646d890602401600060405180830381600087803b158015607f57600080fd5b505af11580156092573d6000803e3d6000fd5b5050505050565b60006020828403121560aa57600080fd5b81356001600160a01b038116811460c057600080fd5b939250505056fea264697066735822122048ac9dbec71059cca26c37566541a6d1b98b9b53d7e22d711246be2c342c176a64736f6c63430008130033",
  "linkReferences": {},
  "deployedLinkReferences": {}
}